{
  "contractName": "predictionMarket",
  "abi": [
    {
      "inputs": [
        {
          "name": "_theQuestion",
          "type": "string"
        }
      ],
      "payable": false,
      "stateMutability": "nonpayable",
      "type": "constructor"
    },
    {
      "payable": true,
      "stateMutability": "payable",
      "type": "fallback"
    },
    {
      "constant": false,
      "inputs": [
        {
          "name": "yesOrNo",
          "type": "bool"
        }
      ],
      "name": "vote",
      "outputs": [],
      "payable": true,
      "stateMutability": "payable",
      "type": "function"
    },
    {
      "constant": true,
      "inputs": [],
      "name": "readQuestion",
      "outputs": [
        {
          "name": "",
          "type": "string"
        }
      ],
      "payable": false,
      "stateMutability": "view",
      "type": "function"
    },
    {
      "constant": true,
      "inputs": [],
      "name": "check",
      "outputs": [
        {
          "name": "",
          "type": "bool"
        },
        {
          "name": "",
          "type": "uint256"
        }
      ],
      "payable": false,
      "stateMutability": "view",
      "type": "function"
    },
    {
      "constant": false,
      "inputs": [],
      "name": "getWinner",
      "outputs": [
        {
          "name": "",
          "type": "bool"
        }
      ],
      "payable": false,
      "stateMutability": "nonpayable",
      "type": "function"
    },
    {
      "constant": false,
      "inputs": [
        {
          "name": "addy",
          "type": "address"
        }
      ],
      "name": "calculateWinnings",
      "outputs": [
        {
          "name": "",
          "type": "uint256"
        }
      ],
      "payable": false,
      "stateMutability": "nonpayable",
      "type": "function"
    },
    {
      "constant": false,
      "inputs": [
        {
          "name": "amount",
          "type": "uint256"
        }
      ],
      "name": "withdraw",
      "outputs": [],
      "payable": false,
      "stateMutability": "nonpayable",
      "type": "function"
    },
    {
      "constant": false,
      "inputs": [],
      "name": "claimWinnings",
      "outputs": [],
      "payable": false,
      "stateMutability": "nonpayable",
      "type": "function"
    },
    {
      "constant": false,
      "inputs": [],
      "name": "getWinnings",
      "outputs": [
        {
          "name": "",
          "type": "uint256"
        }
      ],
      "payable": false,
      "stateMutability": "nonpayable",
      "type": "function"
    }
  ],
  "bytecode": "0x608060405234801561001057600080fd5b5060405161079c38038061079c833981018060405281019080805182019291905050508060009080519060200190610049929190610050565b50506100f5565b828054600181600116156101000203166002900490600052602060002090601f016020900481019282601f1061009157805160ff19168380011785556100bf565b828001600101855582156100bf579182015b828111156100be5782518255916020019190600101906100a3565b5b5090506100cc91906100d0565b5090565b6100f291905b808211156100ee5760008160009055506001016100d6565b5090565b90565b610698806101046000396000f30060806040526004361061008e576000357c0100000000000000000000000000000000000000000000000000000000900463ffffffff1680632e1a7d4d146100935780633f0c8d2b146100c05780634b9f5c981461011757806370b7596b1461013957806379ad1326146101645780638e7ea5b2146101f4578063919840ad14610223578063b401faf114610259575b600080fd5b34801561009f57600080fd5b506100be60048036038101908080359060200190929190505050610270565b005b3480156100cc57600080fd5b50610101600480360381019080803573ffffffffffffffffffffffffffffffffffffffff1690602001909291905050506102ba565b6040518082815260200191505060405180910390f35b6101376004803603810190808035151590602001909291905050506103d0565b005b34801561014557600080fd5b5061014e6104d3565b6040518082815260200191505060405180910390f35b34801561017057600080fd5b506101796104e8565b6040518080602001828103825283818151815260200191508051906020019080838360005b838110156101b957808201518184015260208101905061019e565b50505050905090810190601f1680156101e65780820380516001836020036101000a031916815260200191505b509250505060405180910390f35b34801561020057600080fd5b5061020961058a565b604051808215151515815260200191505060405180910390f35b34801561022f57600080fd5b506102386105af565b60405180831515151581526020018281526020019250505060405180910390f35b34801561026557600080fd5b5061026e610653565b005b3373ffffffffffffffffffffffffffffffffffffffff166108fc829081150290604051600060405180830381858888f193505050501580156102b6573d6000803e3d6000fd5b5050565b600080600080600080869450600160008673ffffffffffffffffffffffffffffffffffffffff1673ffffffffffffffffffffffffffffffffffffffff16815260200190815260200160002060000160009054906101000a900460ff169350600160008673ffffffffffffffffffffffffffffffffffffffff1673ffffffffffffffffffffffffffffffffffffffff1681526020019081526020016000206001015492506000915061036961058a565b905080151584151514156103c35782820191506001151581151514156103a757600280015460026001015481151561039d57fe5b04820191506103c2565b6002600301546002600001548115156103bc57fe5b04820191505b5b8195505050505050919050565b600033905081600160008373ffffffffffffffffffffffffffffffffffffffff1673ffffffffffffffffffffffffffffffffffffffff16815260200190815260200160002060000160006101000a81548160ff02191690831515021790555034600160008373ffffffffffffffffffffffffffffffffffffffff1673ffffffffffffffffffffffffffffffffffffffff1681526020019081526020016000206001018190555081156104a75734600260000160008282540192505081905550600160028001600082825401925050819055506104cf565b3460026001016000828254019250508190555060016002600301600082825401925050819055505b5050565b6000803390506104e2816102ba565b91505090565b606060008054600181600116156101000203166002900480601f0160208091040260200160405190810160405280929190818152602001828054600181600116156101000203166002900480156105805780601f1061055557610100808354040283529160200191610580565b820191906000526020600020905b81548152906001019060200180831161056357829003601f168201915b5050505050905090565b600060026001015460026000015411156105a757600190506105ac565b600090505b90565b6000806000339050600160008273ffffffffffffffffffffffffffffffffffffffff1673ffffffffffffffffffffffffffffffffffffffff16815260200190815260200160002060000160009054906101000a900460ff16600160008373ffffffffffffffffffffffffffffffffffffffff1673ffffffffffffffffffffffffffffffffffffffff1681526020019081526020016000206001015492509250509091565b6000339050610669610664826102ba565b610270565b505600a165627a7a723058203a49312b584cf61b4890d7ebf2718e6e43abbcba0a4923a7fec13a22b0eef3d60029",
  "source": "pragma solidity ^0.4.23;\nimport \"./safeMath.sol\";\n\ncontract predictionMarket {\n    string theQuestion;\n    mapping (address => Vote) Voters;\n    Pool_Var pool;\n\n    struct Vote {\n        bool Vote_Status; //0 or 1 based on what they vote\n        uint256 Amount; //amount of bet\n    }\n\n    struct Pool_Var {\n        uint256 sumYes; //sum of all \"yes\" vote values\n        uint256 sumNo; //sum of all \"no\" vote values\n        uint256 sum_submit_yes; //num voters who voted yes;\n        uint256 sum_submit_no; //num voters who voted no;\n    }\n\n\n  constructor(string  _theQuestion) {\n    theQuestion = _theQuestion;\n   \n  }\n\n  //allows a voter to vote either \"yes\":1 or \"no\":0 and pay a share. Also adds share to the pool.\n  function vote(bool yesOrNo) public payable{\n      address submitter = msg.sender;\n      Voters[submitter].Vote_Status = yesOrNo; //sets vote_status\n      Voters[submitter].Amount = msg.value; //sets vote amount\n      if (yesOrNo){\n        pool.sumYes += msg.value;\n        pool.sum_submit_yes += 1;\n      }\n      else {\n        pool.sumNo += msg.value;\n        pool.sum_submit_no += 1;\n      }\n  }\n\n  //returns _theQuestion driving the prediction market\n  function readQuestion() constant public returns(string) {\n    return theQuestion;\n  }\n\n  //returns a tuple of what a voter's vote and amount paid\n  function check() constant public returns (bool, uint256) {\n      address submitter = msg.sender;\n      return (Voters[submitter].Vote_Status, Voters[submitter].Amount);\n  }\n\n  //returns the winner of the pool, either \"yes\":1, \"no\":0\n  //TODO: this must eventually be time bound\n  function getWinner() returns (bool) {\n    if (pool.sumYes > pool.sumNo) {\n        return true;\n    } else {\n        return false;\n    }\n  }\n\n  //returns the amount a voter wins after the pool is decided\n  //TODO: this must eventually be time bound\n  function calculateWinnings(address addy) returns (uint256) {\n      address submitter = addy;\n      bool submitter_vote = Voters[submitter].Vote_Status;\n      uint256 submitter_val = Voters[submitter].Amount;\n      uint256 sum_winnings = 0;\n      bool winner_vote = getWinner();\n\n\n      if (submitter_vote == winner_vote) {\n            //first add the submitter's initial contribution\n            sum_winnings += submitter_val;\n\n            if (winner_vote == true) {\n                //time to split up the no pool\n                sum_winnings += pool.sumNo/pool.sum_submit_yes;\n            } else {\n                //time to split up the yes pool\n                sum_winnings += pool.sumYes/pool.sum_submit_no;\n            }\n        }\n    return sum_winnings;\n  }\n\n\n  //withdraw amount from smart contract\n  function withdraw(uint256 amount) {\n    msg.sender.transfer(amount);\n  }\n\n  //submitter calls this function to claim their winnings after the prediction market is over\n  function claimWinnings() {\n    address submitter = msg.sender;\n    withdraw(calculateWinnings(submitter));\n\n  }\n\n    //submitter calls this function to claim their winnings after the prediction market is over\n    function getWinnings() returns (uint256) {\n        address submitter = msg.sender;\n        return calculateWinnings(submitter);\n    }\n\n  function() public payable {\n    revert();\n\n  }\n\n}\n",
  "sourcePath": "/Users/roshni16/TronLink-Demo-Messages/contracts/predictionMarket.sol",
  "compiler": {
    "name": "solc",
    "version": "0.4.24-develop.2018.8.28+commit.3ba0cdec.mod.Emscripten.clang"
  },
  "schemaVersion": "2.0.1",
  "updatedAt": "2018-11-03T19:07:27.270Z"
}